:1008D400080800003E4141413E0008107FBFDFEFA1
:0408E400F7FBFDFE23
:0B08E900EF1FAC0670011E4C70F622E1
:10088C00C2B6C2B5E4FEEFC4131313540124FF9295
:10089C00B4EF25E0FFD2B60000C2B60EBE08E7D218
:0508AC00B50000C2B51B
:0108B1002224
:1008B20075807FE4FD74102DF8E6F58074082DF83C
:1008C200E6FF12088C7FA07E861208E90DBD08E5BE
:0208D20080DEC6
:03000000020800F3
:0C080000787FE4F6D8FD758117020847E8
:10080C000208B2E493A3F8E493A34003F68001F248
:10081C0008DFF48029E493A3F85407240CC8C333ED
:10082C00C4540F4420C8834004F456800146F6DFBC
:10083C00E4800B01020408102040809008D4E47E70
:10084C00019360BCA3FF543F30E509541FFEE493B1
:10085C00A360010ECF54C025E060A840B8E493A378
:10086C00FAE493A3F8E493A3C8C582C8CAC583CAA3
:10087C00F0A3C8C582C8CAC583CADFE9DEE780BE5B
:0108E800000F
:00000001FF
