:10087B00438910758DFF758BFFD2ABD2AFD28E2211
:1008000012087BD3E50B9464E50A940040F5E4F507
:100810000AF50B3000080509E509700205082000FB
:1008200008E509150970021508E509B4E807E508A7
:10083000B40302C200E50945087002D200D3E50DF9
:1008400094E8E50C94034005E4F50CF50DC3E50DC3
:100850009509E50C95085004D2A180A7C2A180A3F8
:03001B0002086078
:10086000C0E0758DFF758BFF050DE50D7002050C61
:0B087000050BE50B7002050AD0E0321A
:0300000002088B68
:0C088B00787FE4F6D8FD7581200208009B
:00000001FF
