:10088D003F065B4F666D7D077F6F777C395E7971B3
:01089D00005A
:0B08AA00EF1FAC0670011E4C70F62220
:1008000075900FE590640F60707FE87E031208AA70
:10081000E590640F606375900FAF90EF24F5601062
:1008200024FE601114601324077012E4F508800D93
:10083000750801800875080280037508037590F03B
:10084000AF90EF2450600C24E0600C24F0600C2486
:1008500070800E7404800674088002740C2508F5FC
:1008600008E509C394325011E59064F0600B7FE80D
:090870007E031208AA050980E8C4
:01087900225C
:10087A00C2A2C2A3C2A4120800E50890088D93F58B
:03088A008080F378
:0300000002089E55
:0C089E00787FE4F6D8FD75810902087A25
:00000001FF
