:10086D003F065B4F666D7D077F6F777C395E7971D3
:01087D00007A
:0B088A00EF1FAC0670011E4C70F62240
:10080000E4FDEDB40800504D90080FF8282873025D
:10081000082702082B02083302083702083F0208A3
:100820004302084B02084FC2A28002D2A2C2A3C256
:10083000A48022C2A28002D2A2D2A3C2A48016C2E5
:10084000A28002D2A2C2A3D2A4800AC2A28002D2F3
:10085000A2D2A3D2A4ED90086D93F5807F647E00B0
:0C08600012088AE4F5800DED6408709623
:01086C002269
:0508950012080080FBC9
:0300000002087E75
:0C087E00787FE4F6D8FD7581070208952C
:00000001FF
