:0A0AD7003F065B4F666D7D077F6FE1
:030AEB00010C00FB
:040AA0007FE87E036A
:0B0AA400EF1FAC0670011E4C70F62224
:1009660020B110120AA020B107AD0C7F01120A8730
:1009760030B1FD20B010120AA020B0077F01120A84
:10098600448F0C30B0FD20B215120AA020B20C051F
:100996000CE50CD394FF4003E4F50C30B2FD20B314
:0E09A6000C120AA020B303E4F50C30B3FD22BE
:10088C00E50CFB7C037DE8FF7E0012091174D72F69
:10089C00F582740A3EF583E493F5087C037DE8AF9A
:1008AC00037E00120911AA04AB057D647C00AF0322
:1008BC00AE0212091174D72FF582740A3EF583E447
:1008CC0093F5097D647C00AF03AE02120911AA04F2
:1008DC00AB057D0A7C00AF03AE0212091174D72F51
:1008EC00F582740A3EF583E493F50A7D0A7C00AF29
:1008FC0003AE0212091174D72DF582740A3CF583EC
:05090C00E493F50B224D
:1009B400E4FDED14600E1460131460142403701627
:1009C400C2A28002D2A2C2A3C2A4800AC2A280028E
:1009D400D2A2D2A3C2A4EDFFC374039FFFE4940088
:1009E400FE74D72FF582740A3EF583E493F5807F75
:0D09F400647E00120AA4E4F5800DBD04B578
:010A010022D2
:0B0ACC0012096612088C1209B480F5B4
:050ABE00120AC3D2A1E1
:080AC3007F017E02DEFEDFFA76
:010ACB002208
:0F0AAF00D2A0120ABEC2A0120AC3C2A1020AC379
:0A0AE100C2A0120ABED2A0020AC38E
:020A0200AD073E
:100A0400E4FBEDC4131313540124FF92A0ED25E07D
:100A1400FD120ABEC2A1120AC30BBB08E5D2A01282
:100A24000AC3D2A130A011050DE50DD394C840F43A
:0F0A3400C2A1120AC37F0022C2A1120AC37F010E
:010A43002290
:100A6600E4FDFCD2A1120AC3EC25E0FCA2A0E4330B
:100A76004204120AC3C2A1120AC30DBD08E5AF049F
:010A8600224D
:100A8700AC05AA07120AAF7FA0120A02AF02120A28
:090A970002AF04120A02020AE196
:020A4400AC07FD
:100A4600120AAF7FA0120A02AF04120A02120AAFFC
:0F0A56007FA1120A02120A66AD07120AE1AF056C
:010A6500226E
:03000000020800F3
:0C080000787FE4F6D8FD75810D020847F2
:10091100BC000BBE0029EF8DF084FFADF022E4CCCA
:10092100F875F008EF2FFFEE33FEEC33FCEE9DEC93
:10093100984005FCEE9DFE0FD5F0E9E4CEFD22EDD9
:10094100F8F5F0EE8420D21CFEADF075F008EF2F23
:10095100FFED33FD4007985006D5F0F222C398FD14
:050961000FD5F0EA22B1
:10080C00020ACCE493A3F8E493A34003F68001F22C
:10081C0008DFF48029E493A3F85407240CC8C333ED
:10082C00C4540F4420C8834004F456800146F6DFBC
:10083C00E4800B0102040810204080900AEBE47E57
:10084C00019360BCA3FF543F30E509541FFEE493B1
:10085C00A360010ECF54C025E060A840B8E493A378
:10086C00FAE493A3F8E493A3C8C582C8CAC583CAA3
:10087C00F0A3C8C582C8CAC583CADFE9DEE780BE5B
:010AEE000007
:00000001FF
