:1008CD0057656C636F6D6520746F207573652100BE
:1008980012087A7BFF7A0879CD1208547FC01208B3
:0C08A800DD7BFF7A0879CD12085480FE39
:10080000C2A589807F017E00120829D2A77F057EBC
:1008100000120829C2A7E9C454F0F5807F017E00C8
:09082000120829D2A77F057E0011
:10082900D3EF9400EE940040217DC77C007B017AD0
:1008390000EB1B70011AEB4A70F7ED1D70011CEDFE
:0A0849004C70EAEF1F70D91E80D634
:010853002282
:0C08DD00A907C2A7C2A6120800C2A722E9
:0C08E900A907C2A7D2A6120800C2A722CD
:10087A007F321208DD7F281208DD7F0C1208DD7F27
:0E088A00061208DD7F011208DD7F800208DD06
:100854008B088A09890AAB08AA09A90A1208B4FFF5
:10086400D3940040101208E97401250AF50AE4350E
:0608740009F50980E122F4
:030000000208F5FE
:0C08F500787FE4F6D8FD75810A020898AF
:1008B400BB010689828A83E0225002E722BBFE0242
:0908C400E32289828A83E4932275
:00000001FF
